:020000040800F2
:1000000000000220F908000849090008310700082B
:1000100045070008590700084909000800000000CA
:100020000000000000000000000000004909000876
:1000300049090008000000006306000805070008E1
:100040004909000849090008490900084909000848
:100050000000000049090008490900084909000892
:100060004909000849090008490900084909000828
:100070004909000849090008490900084909000818
:100080004909000849090008490900084909000808
:1000900049090008490900084909000849090008F8
:1000A00049090008490900084909000849090008E8
:1000B00049090008490900084909000849090008D8
:1000C00049090008490900084909000849090008C8
:1000D00049090008490900084909000849090008B8
:1000E00049090008490900084909000849090008A8
:1000F0004909000849090008490900084909000898
:100100004909000849090008490900084909000887
:100110004909000849090008490900084909000877
:100120004909000849090008490900084909000867
:100130004909000849090008490900084909000857
:100140004909000849090008490900084909000847
:100150004909000849090008490900084909000837
:100160004909000849090008490900084909000827
:100170004909000849090008490900084909000817
:1001800049090008490900080000000000000000BB
:10019000000000000000000000000000000000005F
:0801A0004909000849090008A3
:1001A80010B5054C237833B9044B13B10448AFF3A9
:1001B80000800123237010BD6000002000000000B3
:1001C8009C12000808B5034B1BB103490348AFF361
:1001D800008008BD00000000640000209C12000898
:1001E80080B485B000AF78600023FB6002E0FB6854
:1001F8000133FB60FA687B689A42F8D300BF00BFFE
:100208001437BD4680BC704780B582B000AF194B2B
:100218007B60194B3B607B681B6843F008027B6876
:100228001A603B681B6843F080723B681A603B6841
:100238001B6843F080623B681A603B681B6843F0A8
:1002480080523B681A603B681B6843F080423B68F9
:100258001A600C2000F02AF80D2000F027F80E2074
:1002680000F024F80F2000F021F800BF0837BD4641
:1002780080BD00BF30380240000C024080B485B019
:1002880000AF0346FB71084BFB60FB681B68FA79FB
:10029800012101FA02F21A43FB681A6000BF143701
:1002A800BD4680BC704700BF140C024080B485B0C6
:1002B80000AF0346FB71084BFB60FB681B68FA79CB
:1002C800012101FA02F2D2431A40FB681A6000BF0A
:1002D8001437BD4680BC7047140C024080B500AF8F
:1002E80000F028F9084800F091F800F095F8FFF7B9
:1002F8008BFF4FF47A7000F055F800F0A1F900F088
:1003080009F800BFFDE700BF00EC012080B400AF92
:1003180000BFFDE780B500AF0C20FFF7AFFF054831
:10032800FFF75EFF0C20FFF7C1FF0248FFF758FFF9
:1003380000BFF1E7D012130080B500AF0D20FFF722
:100348009DFF0548FFF74CFF0D20FFF7AFFF024860
:10035800FFF746FF00BFF1E76889090080B500AFE5
:100368000F20FFF78BFF0548FFF73AFF0F20FFF735
:100378009DFF0248FFF734FF00BFF1E7B4C4040053
:1003880080B500AF0E20FFF779FF0548FFF728FF7B
:100398000E20FFF78BFF0248FFF722FF00BFF1E7AF
:1003A8005A62020080B487B000AF7860144B7B615A
:1003B800144B3B61144A7B68B2FBF3F3013BFB60CF
:1003C8007B6900221A607B691A68FB681A437B699B
:1003D8001A603B691B6843F002023B691A603B697B
:1003E8001B6843F004023B691A603B691B6843F0D1
:1003F80001023B691A6000BF1C37BD4680BC7047CC
:1004080014E000E010E000E00024F400034683F369
:100418000888704700BF000080B485B000AF3A4B31
:1004280000221A72384B00221A76374B002283F8C2
:100438002820354B002283F83820334B002283F8DC
:100448004820314B314A1A602F4B314A1A612E4BE2
:10045800304A1A622C4B304A1A632B4B2F4A1A64C3
:10046800294B2F4ADA60284B2E4ADA61264B2E4A4E
:10047800DA62254B2D4ADA63234B2D4ADA640023CE
:10048800BB6037E0204ABB681B0113441B68FB6054
:10049800FB68043BFB60FB684FF080721A60FB68E6
:1004A800043BFB60184ABB681B0113440C331B68F0
:1004B8001A46FB681A60FB68043BFB60FB686FF038
:1004C80002021A6000237B6008E0FB68043BFB60C3
:1004D800FB6800221A607B6801337B607B680C2B09
:1004E800F3DDFA680849BB681B010B441A60BB6856
:1004F8000133BB60BB68042BC4DD00BF00BF1437E9
:10050800BD4680BC704700BF8000002000F001207D
:100518000000022000FC012000F8012000F4012066
:10052800150300081D0300084103000865030008BF
:100538008903000880B483B000AF0C4B7B607B68F4
:100548001B6843F480327B681A607B681B6843F43D
:1005580000327B681A607B681B6843F480227B68E2
:100568001A6000BF0C37BD4680BC704724ED00E020
:1005780080B400AF044B1B78044A1B0113441B686A
:100588001846BD4680BC704700000020800000204F
:1005980080B483B000AF7860054B1B78054A1B0117
:1005A80013447A681A6000BF0C37BD4680BC704798
:1005B800000000208000002080B483B000AFFF233B
:1005C8007B6000233B6024E01A4B1B780133DAB2CE
:1005D800184B1A70174B1A78174BA3FB021399087C
:1005E8000B469B000B44D31ADAB2124B1A70114B0C
:1005F8001B78124A1B01134408331B787B607B6805
:10060800002B03D10B4B1B78002B06D13B68013321
:100618003B603B68042BD7DD00E000BF7B68002B04
:1006280002D0044B00221A7000BF0C37BD4680BCB4
:10063800704700BF00000020CDCCCCCC800000204B
:1006480000B5FFF795FF80F309885DF804EB4FF0DC
:10065800020080F31488704700BFEFF3098020E997
:10066800F00F00B5FFF794FFFFF7A6FFFFF780FF35
:10067800B0E8F00F80F309885DF804EB704700BF1D
:1006880080B400AF044B1B680133034A136000BFFA
:10069800BD4680BC704700BF7C00002080B483B09A
:1006A80000AF01237B601BE0124A7B681B011344E7
:1006B80008331B78002B10D00E4A7B681B011344AB
:1006C80004331A680C4B1B689A4206D1094A7B68A6
:1006D8001B011344083300221A707B6801337B60C6
:1006E8007B68042BE0DD00BF00BF0C37BD4680BC33
:1006F800704700BF800000207C00002080B582B0D9
:1007080000AF084B7B60FFF7BBFFFFF7C7FF7B68B5
:100718001B6843F080527B681A6000BF0837BD46EB
:1007280080BD00BF04ED00E080B500AF024800F0D6
:1007380021FA00BFFDE700BFB412000880B500AF82
:10074800024800F017FA00BFFDE700BFCC1200080E
:1007580080B500AF024800F00DFA00BFFDE700BF0A
:10076800E412000880B483B000AF0346FB710E4B5F
:100778001B680D4A43F0807313600C4B1B680B4ACF
:1007880043F00103136000BF4FF060431B6803F0A0
:100798000103002BF8D04FF06042FB79136000BFD3
:1007A8000C37BD4680BC7047FCED00E0000E00E051
:1007B80080B586B000AFF860B9607A6000237B61CD
:1007C8000AE0AFF300800146BB685A1CBA60CAB29F
:1007D8001A707B6901337B617A697B689A42F0DB26
:1007E8007B6818461837BD4680BD80B586B000AF17
:1007F800F860B9607A6000237B6109E0BB685A1C25
:10080800BA601B781846FFF7ADFF7B6901337B613F
:100818007A697B689A42F1DB7B6818461837BD46CF
:1008280080BD80B483B000AF78604FF0FF331846C6
:100838000C37BD4680BC704780B483B000AF786089
:1008480039603B684FF400525A60002318460C3751
:10085800BD4680BC704780B483B000AF7860012388
:1008680018460C37BD4680BC704780B485B000AFD1
:10087800F860B9607A60002318461437BD4680BC1A
:100888007047000080B586B000AF7860144A154BF9
:10089800D31A7B617B693B61134B1B68002B02D128
:1008A800114B124A1A60104B1A687B6813443A6954
:1008B8009A4207D200F08CFA03460C221A604FF0D5
:1008C800FF3309E0084B1B68FB60074B1A687B681D
:1008D8001344054A1360FB6818461837BD4680BDA7
:1008E8000000022000040000D000002020020020A8
:1008F8000D4885460D480E490E4A002302E0D4589B
:10090800C4500433C4188C42F9D30B4A0B4C00234F
:1009180001E013600432A242FBD3AFF3008000F081
:100928005DFAFFF7DBFCFEE7000002200000002074
:10093800600000200413000860000020200200204E
:10094800FEE70000002310B50446C0E90033C0E903
:100958000433836081814366C2818361194608221A
:100968005C3000F0E7F90D4B63620D4BA3620D4B51
:10097800E3620D4B23630D4B24629C4206D003F1C6
:100988006802944202D0D0339C4205D104F1580049
:10099800BDE8104000F046BA10BD00BF8D0B00083E
:1009A800AF0B0008E70B00080B0C0008D400002070
:1009B800024A0349034800F069B800BF0400002058
:1009C800251100081400002041680C4B994210B50D
:1009D800044601D000F0A2FBA168094B994202D05D
:1009E800204600F09BFBE168064B994204D0204664
:1009F800BDE8104000F092BB10BD00BFD40000203D
:100A08003C010020A401002010B50B4B0B4C0C4AF4
:100A18001A60204600220421FFF794FF04F16800C1
:100A280001220921FFF78EFF04F1D0000222BDE860
:100A380010401221FFF786BF0C020020D4000020CE
:100A4800B9090008014800F0EEB900BF15020020FE
:100A5800014800F0E9B900BF1502002010B50446AE
:100A6800FFF7F0FF236A1BB1BDE81040FFF7F0BFA6
:100A7800044B2362044B1B68002BF5D1FFF7C4FF1E
:100A8800F2E700BFD10900080C0200202DE9F84365
:100A98000746884614460026D4E90195B9F10109AC
:100AA80005D52468002CF7D13046BDE8F883AB891A
:100AB800012B07D9B5F90E30013303D02946384642
:100AC800C04706436835E9E7036A70B58468054698
:100AD8000E460BB9FFF7C2FF636EDB0705D4A38987
:100AE800980502D4A06D00F09EF9A389190702D5D4
:100AF8002369002B35D12146284600F0C5F880B37C
:100B08004FF0FF35636EDA0705D4A3899B0502D43D
:100B1800A06D00F089F9284670BD002B04DAA2699F
:100B28009A4217DC0A2915D023685A1C22601970CA
:100B3800A36816F8011F013BA3600029EDD1002B23
:100B480011DA22460A21284600F05FF80130D7D092
:100B58000A25D7E72246284600F057F80130E7D1A2
:100B6800CEE7013EE4E723685A1C22600A221A7085
:100B7800EEE70000024B01461868FFF7A5BF00BF6B
:100B88001000002010B50C46B1F90E1000F0FCF86A
:100B98000028ABBF636DA3891B1823F48053ACBF37
:100BA8006365A38110BD2DE9F0411F468B89DB05E4
:100BB80005460C46164605D5B1F90E10022300224B
:100BC80000F0D0F8A389B4F90E1023F48053A38160
:100BD80032463B462846BDE8F04100F0E7B810B57C
:100BE8000C46B1F90E1000F0BDF8431CA38915BFDF
:100BF800606523F4805343F48053A38118BFA38115
:100C080010BDB1F90E1000F09DB8F8B50E461446A7
:100C1800054618B1036A0BB9FFF720FFA369A36063
:100C2800A3891A0701D5236943B92146284600F04C
:100C38002BF818B14FF0FF373846F8BD2368226902
:100C4800981A6369F6B28342374605DC214628467E
:100C580000F064FA0028EDD1A368013BA360236883
:100C68005A1C22601E706269431C9A4204D0A389F0
:100C7800DB07E1D50A2EDFD12146284600F04EFADF
:100C88000028D9D0D6E7000038B5294B05461868A2
:100C98000C4618B1036A0BB9FFF7E0FEB4F90C3043
:100CA800190722D4DA0607D409222A6043F0400340
:100CB800A3814FF0FF3033E0580712D5616B41B183
:100CC80004F14403994202D0284600F0AFF800230B
:100CD8006363A38923F02403A3810023636023694A
:100CE8002360A38943F00803A38123694BB9A3892F
:100CF80003F42073B3F5007F03D02146284600F0A3
:100D08005BFAB4F90C3013F001020AD00022A26099
:100D180062695242A261226942B913F08000C5D1CA
:100D280038BD990758BF6269A260F4E70020F7E769
:100D38001000002002440346934200D1704703F894
:100D4800011BF9E738B5064D0023044608462B6019
:100D5800FFF767FD431C02D12B6803B1236038BD40
:100D68001002002038B5074D0446084611460022F7
:100D78002A601A46FFF779FD431C02D12B6803B19C
:100D8800236038BD1002002038B5074D04460846D8
:100D9800114600222A601A46FFF70AFD431C02D1B9
:100DA8002B6803B1236038BD1002002038B5074D09
:100DB80004460846114600222A601A46FFF715FD28
:100DC800431C02D12B6803B1236038BD10020020F8
:100DD800014B1868704700BF1000002070B50D4D1A
:100DE8000D4C641BA4100026A64209D10B4D0C4CD7
:100DF80000F050FA641BA4100026A64205D170BD6D
:100E080055F8043B98470136EEE755F8043B9847F8
:100E18000136F2E7FC120008FC120008FC12000878
:100E280000130008704770477047000038B5054642
:100E3800002941D051F8043C0C1F002BB8BFE4181E
:100E480000F0E0F81D4A136833B96360146028465F
:100E5800BDE8384000F0DCB8A34208D92068211862
:100E68008B4201BF19685B6809182160EDE71A46D3
:100E78005B680BB1A342FAD911685018A0420BD194
:100E880020680144501883421160E0D118685B68FB
:100E9800536008441060DAE702D90C232B60D6E7C8
:100EA800206821188B4204BF19685B68636004BF1F
:100EB800091821605460CAE738BD00BF1C02002031
:100EC80070B50F4E0C463168054611B900F0D2F9DD
:100ED80030602146284600F0CDF9431C03D14FF07D
:100EE800FF34204670BDC41C24F00304A042F8D08F
:100EF800211A284600F0BEF90130F2D1EFE700BF11
:100F0800180200202DE9F843CD1C25F0030508350B
:100F18000C2D38BF0C25002D064601DBA94204D94B
:100F28000C2333600020BDE8F883DFF8D48000F09C
:100F380069F8D8F800301C4644BB29463046FFF70C
:100F4800BFFF431C044658D1D8F800402746002F5D
:100F580043D1002C4BD023683946304604EB0309B3
:100F680000F088F9814542D121686D1A294630463A
:100F7800FFF7A6FF01303AD023682B442360D8F846
:100F880000305A6862BBC8F800700FE02268521B34
:100F980020D40B2A17D96119A342256018BF5960BC
:100FA800636808BFC8F8001062514B60304600F013
:100FB8002FF804F10B00231D20F00700C21A1CBFF4
:100FC8001B1AA350AFE76268A3420CBFC8F8002001
:100FD8005A60EBE723466468AEE73C467F68B6E7AD
:100FE8001A465B68A342FBD100235360DEE70C235B
:100FF8003360304600F00CF894E70560D6E700BF90
:101008001C0200200148FFF70EBF00BF1402002099
:101018000148FFF709BF00BF14020020B1F90C20F6
:10102800F8B5160705460C4654D44B68002B02DC6D
:101038000B6C002B48DDE66A002E45D0002312F425
:1010480080522F68216A2B6030D0626DA3895907BE
:1010580005D56368D21A636B0BB1236CD21A0023CF
:10106800E66A216A2846B047431CA38906D1296845
:101078001D292BD8284A0A41D60727D400226260A6
:10108800D9042269226004D5421C01D12B6803B916
:101098006065616B2F60B9B104F14403994202D0D5
:1010A8002846FFF7C3FE002363630DE001232846AB
:1010B800B0470246501CC9D12B68002BC6D01D2B47
:1010C80001D0162B1DD12F60002021E043F04003F2
:1010D8001BB21AE00F69002FF6D093070E6808BFFD
:1010E8004B690F6018BF0023F61B8B60002EEBDDE9
:1010F800216AD4F828C033463A462846E0470028F3
:1011080007DCB4F90C3043F04003A3814FF0FF3003
:10111800F8BD0744361AE9E7FEFFBFDF38B50B69AB
:1011280005460C4613B90025284638BD18B1036A90
:101138000BB9FFF793FCB4F90C30002BF3D0626EB7
:10114800D00704D4990502D4A06DFFF76CFE284699
:101158002146FFF763FF636EDA070546E4D4A389E7
:101168009B05E1D4A06DFFF75FFEDDE770B50C4687
:10117800B1F90E10002996B015461E460DDAA3895E
:1011880013F0800F4FF0000114BF40234FF4806329
:10119800002031602B6016B070BD6A4600F048F838
:1011A8000028ECDB019901F47041A1F50053594284
:1011B80059414FF48063EBE78B89F7B59D070646E5
:1011C8000C4607D504F147032360236101236361BB
:1011D80003B0F0BD01AB6A46FFF7C8FF009F0546A4
:1011E80039463046FFF78EFE48B9B4F90C309A05F7
:1011F800EED423F0030343F00203A381E2E7A389BB
:10120800206043F08003A381019BC4E904075BB11C
:10121800B4F90E10304600F01DF828B1A38923F068
:10122800030343F00103A381A3891D43A581CFE7ED
:1012380038B5074D00230446084611462B60FFF7D2
:10124800FBFA431C02D12B6803B1236038BD00BFF1
:101258001002002038B5064D0023044608462B60CE
:10126800FFF7F9FA431C02D12B6803B1236038BD9C
:101278001002002038B5064D0023044608462B60AE
:10128800FFF700FB431C02D12B6803B1236038BD74
:1012980010020020F8B500BFF8BC08BC9E46704795
:0C12A800F8B500BFF8BC08BC9E467047BB
:1012B400457863657074696F6E203A204861726482
:1012C4006661756C74000000457863657074696FBD
:1012D4006E203A204D656D4D616E616765000000BA
:1012E400457863657074696F6E203A204275734661
:0812F40061756C74000000003C
:0412FC00CD01000818
:04130000A901000837
:10130400010000000000000003000000D4000020E1
:101314001400002000000000D40000203C01002044
:10132400A4010020000000000000000000000000F4
:1013340000000000000000000000000000000000A9
:101344000000000000000000000000000000000099
:101354000000000000000000000000000000000089
:04000005080008F9EE
:00000001FF
